{
  "_format": "hh-sol-artifact-1",
  "contractName": "Transactions",
  "sourceName": "contracts/Transactions.sol",
  "abi": [
    {
      "inputs": [],
      "stateMutability": "nonpayable",
      "type": "constructor"
    },
    {
      "anonymous": false,
      "inputs": [
        {
          "indexed": false,
          "internalType": "address",
          "name": "from",
          "type": "address"
        },
        {
          "indexed": false,
          "internalType": "address",
          "name": "receiver",
          "type": "address"
        },
        {
          "indexed": false,
          "internalType": "uint256",
          "name": "amount",
          "type": "uint256"
        },
        {
          "indexed": false,
          "internalType": "string",
          "name": "message",
          "type": "string"
        },
        {
          "indexed": false,
          "internalType": "uint256",
          "name": "timestamp",
          "type": "uint256"
        },
        {
          "indexed": false,
          "internalType": "string",
          "name": "gif",
          "type": "string"
        }
      ],
      "name": "Transfer",
      "type": "event"
    },
    {
      "inputs": [
        {
          "internalType": "address payable",
          "name": "receiver",
          "type": "address"
        },
        {
          "internalType": "uint256",
          "name": "amount",
          "type": "uint256"
        },
        {
          "internalType": "string",
          "name": "message",
          "type": "string"
        },
        {
          "internalType": "string",
          "name": "gif",
          "type": "string"
        }
      ],
      "name": "addToBlockchain",
      "outputs": [],
      "stateMutability": "nonpayable",
      "type": "function"
    },
    {
      "inputs": [],
      "name": "getAllTransactions",
      "outputs": [
        {
          "components": [
            {
              "internalType": "address",
              "name": "sender",
              "type": "address"
            },
            {
              "internalType": "address",
              "name": "receiver",
              "type": "address"
            },
            {
              "internalType": "uint256",
              "name": "amount",
              "type": "uint256"
            },
            {
              "internalType": "string",
              "name": "message",
              "type": "string"
            },
            {
              "internalType": "uint256",
              "name": "timestamp",
              "type": "uint256"
            },
            {
              "internalType": "string",
              "name": "gif",
              "type": "string"
            }
          ],
          "internalType": "struct Transactions.TransferStruct[]",
          "name": "",
          "type": "tuple[]"
        }
      ],
      "stateMutability": "view",
      "type": "function"
    },
    {
      "inputs": [],
      "name": "getPrice",
      "outputs": [
        {
          "internalType": "int256",
          "name": "",
          "type": "int256"
        }
      ],
      "stateMutability": "view",
      "type": "function"
    },
    {
      "inputs": [],
      "name": "getTransactionCount",
      "outputs": [
        {
          "internalType": "uint256",
          "name": "",
          "type": "uint256"
        }
      ],
      "stateMutability": "view",
      "type": "function"
    }
  ],
  "bytecode": "0x608060405234801561001057600080fd5b50738a753747a1fa494ec906ce90e9f37563a8af630e600160006101000a81548173ffffffffffffffffffffffffffffffffffffffff021916908373ffffffffffffffffffffffffffffffffffffffff160217905550610ebc806100756000396000f3fe608060405234801561001057600080fd5b506004361061004c5760003560e01c806327506f53146100515780632e7700f01461006f57806398d5fdca1461008d578063cc2d7ead146100ab575b600080fd5b6100596100c7565b6040516100669190610a66565b60405180910390f35b61007761030a565b6040516100849190610aa3565b60405180910390f35b610095610313565b6040516100a29190610a88565b60405180910390f35b6100c560048036038101906100c09190610708565b6103d2565b005b60606002805480602002602001604051908101604052809291908181526020016000905b8282101561030157838290600052602060002090600602016040518060c00160405290816000820160009054906101000a900473ffffffffffffffffffffffffffffffffffffffff1673ffffffffffffffffffffffffffffffffffffffff1673ffffffffffffffffffffffffffffffffffffffff1681526020016001820160009054906101000a900473ffffffffffffffffffffffffffffffffffffffff1673ffffffffffffffffffffffffffffffffffffffff1673ffffffffffffffffffffffffffffffffffffffff168152602001600282015481526020016003820180546101d490610d2b565b80601f016020809104026020016040519081016040528092919081815260200182805461020090610d2b565b801561024d5780601f106102225761010080835404028352916020019161024d565b820191906000526020600020905b81548152906001019060200180831161023057829003601f168201915b505050505081526020016004820154815260200160058201805461027090610d2b565b80601f016020809104026020016040519081016040528092919081815260200182805461029c90610d2b565b80156102e95780601f106102be576101008083540402835291602001916102e9565b820191906000526020600020905b8154815290600101906020018083116102cc57829003601f168201915b505050505081525050815260200190600101906100eb565b50505050905090565b60008054905090565b600080600160009054906101000a900473ffffffffffffffffffffffffffffffffffffffff1673ffffffffffffffffffffffffffffffffffffffff1663feaf968c6040518163ffffffff1660e01b815260040160a06040518083038186803b15801561037e57600080fd5b505afa158015610392573d6000803e3d6000fd5b505050506040513d601f19601f820116820180604052508101906103b6919061079b565b5050509150506305f5e100816103cc9190610bdb565b91505090565b60016000808282546103e49190610b85565b9250508190555060026040518060c001604052803373ffffffffffffffffffffffffffffffffffffffff1681526020018673ffffffffffffffffffffffffffffffffffffffff16815260200185815260200184815260200142815260200183815250908060018154018082558091505060019003906000526020600020906006020160009091909190915060008201518160000160006101000a81548173ffffffffffffffffffffffffffffffffffffffff021916908373ffffffffffffffffffffffffffffffffffffffff16021790555060208201518160010160006101000a81548173ffffffffffffffffffffffffffffffffffffffff021916908373ffffffffffffffffffffffffffffffffffffffff160217905550604082015181600201556060820151816003019080519060200190610523929190610594565b506080820151816004015560a082015181600501908051906020019061054a929190610594565b5050507f416cfa4330a4565f45c2fd2dd4826a83a37443aba2ce6f79477c7355afac35fa338585854286604051610586969594939291906109f7565b60405180910390a150505050565b8280546105a090610d2b565b90600052602060002090601f0160209004810192826105c25760008555610609565b82601f106105db57805160ff1916838001178555610609565b82800160010185558215610609579182015b828111156106085782518255916020019190600101906105ed565b5b509050610616919061061a565b5090565b5b8082111561063357600081600090555060010161061b565b5090565b600061064a61064584610aef565b610abe565b90508281526020810184848401111561066257600080fd5b61066d848285610ce9565b509392505050565b60008135905061068481610e2a565b92915050565b60008151905061069981610e41565b92915050565b600082601f8301126106b057600080fd5b81356106c0848260208601610637565b91505092915050565b6000813590506106d881610e58565b92915050565b6000815190506106ed81610e58565b92915050565b60008151905061070281610e6f565b92915050565b6000806000806080858703121561071e57600080fd5b600061072c87828801610675565b945050602061073d878288016106c9565b935050604085013567ffffffffffffffff81111561075a57600080fd5b6107668782880161069f565b925050606085013567ffffffffffffffff81111561078357600080fd5b61078f8782880161069f565b91505092959194509250565b600080600080600060a086880312156107b357600080fd5b60006107c1888289016106f3565b95505060206107d28882890161068a565b94505060406107e3888289016106de565b93505060606107f4888289016106de565b9250506080610805888289016106f3565b9150509295509295909350565b600061081e8383610949565b905092915050565b61082f81610cb3565b82525050565b61083e81610c45565b82525050565b61084d81610c45565b82525050565b600061085e82610b2f565b6108688185610b52565b93508360208202850161087a85610b1f565b8060005b858110156108b657848403895281516108978582610812565b94506108a283610b45565b925060208a0199505060018101905061087e565b50829750879550505050505092915050565b6108d181610c69565b82525050565b60006108e282610b3a565b6108ec8185610b63565b93506108fc818560208601610cf8565b61090581610e19565b840191505092915050565b600061091b82610b3a565b6109258185610b74565b9350610935818560208601610cf8565b61093e81610e19565b840191505092915050565b600060c0830160008301516109616000860182610835565b5060208301516109746020860182610835565b50604083015161098760408601826109d9565b506060830151848203606086015261099f82826108d7565b91505060808301516109b460808601826109d9565b5060a083015184820360a08601526109cc82826108d7565b9150508091505092915050565b6109e281610c93565b82525050565b6109f181610c93565b82525050565b600060c082019050610a0c6000830189610844565b610a196020830188610826565b610a2660408301876109e8565b8181036060830152610a388186610910565b9050610a4760808301856109e8565b81810360a0830152610a598184610910565b9050979650505050505050565b60006020820190508181036000830152610a808184610853565b905092915050565b6000602082019050610a9d60008301846108c8565b92915050565b6000602082019050610ab860008301846109e8565b92915050565b6000604051905081810181811067ffffffffffffffff82111715610ae557610ae4610dea565b5b8060405250919050565b600067ffffffffffffffff821115610b0a57610b09610dea565b5b601f19601f8301169050602081019050919050565b6000819050602082019050919050565b600081519050919050565b600081519050919050565b6000602082019050919050565b600082825260208201905092915050565b600082825260208201905092915050565b600082825260208201905092915050565b6000610b9082610c93565b9150610b9b83610c93565b9250827fffffffffffffffffffffffffffffffffffffffffffffffffffffffffffffffff03821115610bd057610bcf610d5d565b5b828201905092915050565b6000610be682610c69565b9150610bf183610c69565b925082610c0157610c00610d8c565b5b600160000383147f800000000000000000000000000000000000000000000000000000000000000083141615610c3a57610c39610d5d565b5b828205905092915050565b6000610c5082610c73565b9050919050565b6000610c6282610c73565b9050919050565b6000819050919050565b600073ffffffffffffffffffffffffffffffffffffffff82169050919050565b6000819050919050565b600069ffffffffffffffffffff82169050919050565b6000610cbe82610cc5565b9050919050565b6000610cd082610cd7565b9050919050565b6000610ce282610c73565b9050919050565b82818337600083830152505050565b60005b83811015610d16578082015181840152602081019050610cfb565b83811115610d25576000848401525b50505050565b60006002820490506001821680610d4357607f821691505b60208210811415610d5757610d56610dbb565b5b50919050565b7f4e487b7100000000000000000000000000000000000000000000000000000000600052601160045260246000fd5b7f4e487b7100000000000000000000000000000000000000000000000000000000600052601260045260246000fd5b7f4e487b7100000000000000000000000000000000000000000000000000000000600052602260045260246000fd5b7f4e487b7100000000000000000000000000000000000000000000000000000000600052604160045260246000fd5b6000601f19601f8301169050919050565b610e3381610c57565b8114610e3e57600080fd5b50565b610e4a81610c69565b8114610e5557600080fd5b50565b610e6181610c93565b8114610e6c57600080fd5b50565b610e7881610c9d565b8114610e8357600080fd5b5056fea26469706673582212203b85f90b0de031475e1a2c913133fe6a141391d171d3ff823961f5d6486188cd64736f6c63430008000033",
  "linkReferences": {},
  "deployedLinkReferences": {}
}